:020000040800F2
:1000000098390120717D00081117000819170008A0
:1000100039170008411700084917000800000000C0
:100020000000000000000000000000005117000860
:10003000591700080000000071B900086117000896
:1000400035180008DD7D0008DD7D00088D1B0008E7
:10005000DD7D0008DD7D00086518000889180008AE
:10006000AD180008CD180008ED180008DD7D000867
:10007000DD7D0008DD7D0008DD7D000815980008A5
:10008000DD7D0008DD7D0008F91A0008DD7D00082F
:10009000DD7D0008DD7D0008DD7D00080D1900080C
:1000A000DD7D0008DD7D0008DD7D0008DD7D0008C8
:1000B000DD7D0008DD7D0008DD7D0008DD7D0008B8
:1000C000DD7D0008DD7D0008DD7D0008DD7D0008A8
:1000D000DD7D0008DD7D0008391B0008DD7D00089E
:1000E000A11900085D1A0008DD7D0008DD7D00080B
:1000F000DD7D0008DD7D0008DD7D0008DD7D000878
:10010000DD7D0008DD7D0008B11B0008DD7D0008F5
:10011000DD7D0008451B0008291C0008D51B0008D0
:10012000DD7D0008DD7D0008E11B0008051C0008DE
:10013000DD7D0008DD7D0008DD7D0008DD7D000837
:10014000DD7D0008DD7D0008DD7D0008DD7D000827
:10015000DD7D0008811B0008DD7D0008751B00089F
:10016000DD7D0008DD7D0008DD7D0008DD7D000807
:10017000DD7D0008DD7D0008DD7D0008DD7D0008F7
:10018000DD7D0008DD7D000880B582B000AF7860BD
:1001900039607B681B881B01DAB23B68DA707B68C8
:1001A0005A883B689A807B681B88022B04D17B6845
:1001B0005A683B689A600CE07B681B88092B08D161
:1001C0003B689A1D7B68083310461946062214F0D6
:1001D0006BFA0837BD4680BD80B485B000AF0246DB
:1001E0000B46FA80BB80FB8803F0F0031B11094A21
:1001F000D35C03F24653FB60BA88FB689A4202D98B
:10020000FB689BB200E0BB8818461437BD465DF81A
:10021000047B70479096010880B584B000AF034618
:10022000FB80FB88DBB23B7207F1080308481946E4
:10023000002202F0BBF90346FB81B7F90E30002B18
:1002400000D0FEE73B891BB218461037BD4680BD83
:10025000A496010880B58EB000AFB9600146F9815F
:10026000BA81FB800023BB84002387F8263000235B
:1002700087F8273007F11403184603F013FEBB89F3
:10028000BB82BB68FB613B6C1B88022B02D0092B35
:1002900007D00DE049F20D43BB840C2387F82630CC
:1002A00009E049F20463BB840C2387F8263002E09E
:1002B0004FF6FE7353E0BB89B7F90E20104619467E
:1002C000FFF78AFF0346FB86FB8E3B85FB8EBB82D6
:1002D000FB89DBB287F82A3007F12803386C19460E
:1002E000FFF752FF97F82B30DAB2FB88DBB203F04E
:1002F0000F03DBB21343DBB2DBB287F82B30FB8991
:10030000D8B207F1240107F1280207F1140302F023
:1003100035FA0346BB86B7F93430002B1CD1FA6995
:10032000FB8E1344FB61B7F90C30BA6813441A46CC
:10033000FB69D31AFB86B7F90E20FB8E10461946CF
:10034000FFF74AFF0346FB86FB8EBB82FB8E3B8595
:10035000FB8E002BD3D101E0BB8E00E0BB891BB22A
:1003600018463837BD4680BD80B58CB000AFB96047
:100370000146F981BA81FB8007F11003184603F0AA
:1003800091FDBB897B82BB68FB61FB89DBB287F88F
:100390002230BB893B843B8C9BB27B82FB88DBB2E7
:1003A00003F00F03DBB287F82330FB6B1B88102BA5
:1003B00007D197F8233043F02003DBB287F82330CE
:1003C0000EE0FB6B1B881C2B07D197F8233043F002
:1003D0003003DBB287F8233002E04FF6FE7341E0D2
:1003E000FB89D9B207F1200207F110030846204922
:1003F00002F020F90346FB85B7F92E30002B01D01F
:10040000FB8D2FE03B8CFB85B7F92E30002B28DBD2
:10041000B7F90E2097F822309A4200D0FEE797F8FD
:1004200023301A46BB6B1A80BB6B1B88022B09D189
:10043000BA8CBB6B5A80BA6ABB6B5A60FB6B1022DA
:100440001A800EE0BB6B1B88092B0AD1BA8CBB6BE0
:100450005A80BB6B083307F1260211681960928835
:100460009A80FB8D1BB218463037BD4680BD00BF59
:10047000A896010880B584B000AF78607B68083327
:10048000FB6003F0BBFCFB689B7803F00F03082BB9
:1004900000DDFEE71B4B19681A4B1B6893F8B4315B
:1004A0001A4613465B0013449B000B4410335B68F1
:1004B000FA6892789A70134B1968124B1B6893F87C
:1004C000B4311A4613465B0013449B000B441033AF
:1004D0005B68FA6812881A800A4B1968094B1B6816
:1004E00093F8B4311A4613465B0013449B00103353
:1004F0000B44184603F05CFC03F0ACFC00BF103763
:10050000BD4680BDDC19002080B58CB000AFB9605D
:100510000146F981BA81FB80002387F82D3007F16D
:100520001403184603F0BEFCBB89BB82BB68FB61A9
:10053000FB8903F0F003802B0CD1B7F906303B6147
:1005400007F110033B624FF6FC73FB82012387F82F
:100550002D3001E000233B62BB89B7F90E20104625
:100560001946FFF739FE0346FB85FB8DBB82FB8DE9
:10057000BB84FB89DBB287F8263097F82730DAB2E4
:10058000FB88DBB203F00F03DBB21343DBB2DBB259
:1005900087F82730FB89D9B207F1240207F1140349
:1005A0000846194902F0EAF803467B85B7F92A3074
:1005B000002B1CD1FA69FB8D1344FB61B7F90C3099
:1005C000BA6813441A46FB69D31AFB85B7F90E20A3
:1005D000FB8D10461946FFF7FFFD0346FB85FB8D9B
:1005E000BB82FB8DBB84FB8D002B06D001E07B8D95
:1005F00004E097F82D30002BCCD0BB891BB21846F5
:100600003037BD4680BD00BFAC96010880B584B0D0
:1006100000AF78607B680833FB6003F0EFFBFB689A
:100620009B7803F00F03082B00DDFEE7144B1968DD
:10063000134B1B6893F8B4311A4613465B001344FE
:100640009B000B4410335B681846F9680C2214F0C9
:100650002BF80B4B19680A4B1B6893F8B4311A46F8
:1006600013465B0013449B0010330B44184603F001
:100670009FFB03F0EFFB00BF1037BD4680BD00BFFE
:10068000DC19002080B584B000AF78607B68083347
:10069000FB6003F0B3FB144B1968134B1B6893F812
:1006A000B4311A4613465B0013449B000B441033CD
:1006B0005B681846F968082213F0F6FF0A4B1968C0
:1006C000094B1B6893F8B4311A4613465B00134478
:1006D0009B0010330B44184603F06AFB03F0BAFB8F
:1006E00000BF1037BD4680BDDC19002080B58AB040
:1006F00000AFB9600146F981BA81FB8007F11003B0
:10070000184603F0CFFBBB897B82BB68FB61FB898A
:10071000DBB287F82230BB893B843B8C9BB27B8267
:10072000FB88DBB203F00F03DBB287F82330FB89D1
:10073000D9B207F1200207F110030846084901F079
:1007400079FF0346FB84B7F92630002B01D0FB8CE0
:1007500000E03B8C1BB218462837BD4680BD00BF69
:10076000B896010880B58AB000AFB9607A603B6086
:100770000346FB81202387F82730FB89DBB23B76D9
:1007800000237B760023BB760023BB830023FB83FF
:10079000BB68002B03D0BB681B689BB2BB837B6824
:1007A000002B03D07B681B689BB2FB833B6B002B49
:1007B00006D14FF6FF737B844FF6FF733B8420E036
:1007C0003B6B1A684FF6FE739A4203D94FF6FF73DC
:1007D0007B8403E03B6B1B689BB27B843B6B5B6859
:1007E0009A0A3B6B5A603B6B5A684FF6FE739A420B
:1007F00003D94FF6FF733B8403E03B6B5B689BB20E
:100800003B8407F1100318460A21082201F00EFD6F
:10081000034687F8273097F82730202B02D14FF670
:10082000300338E007F118031D481946002201F093
:10083000BDFE0346BB84B7F92430002B00D0FEE791
:100840003B8B002B21D1174B196897F827201346B3
:100850005B0013449B0010330B44184603F094FADA
:100860003B8A9BB23B833B8B1BB2002B0DDBBB68EF
:10087000002B03D0BB8A1A46BB681A607B68002B2A
:1008800003D0FB8A1A467B681A6097F8273018460F
:1008900003F05CF83B8B1BB218462837BD4680BD81
:1008A000C4960108DC19002080B483B000AF034671
:1008B0003960FB803B681A68FB8803F00F03012155
:1008C00001FA03F31A433B681A600C37BD465DF822
:1008D000047B704780B483B000AF03463960FB806F
:1008E0003B681A68FB8803F00F03012101FA03F348
:1008F0001340002B01D0012300E000231BB2184657
:100900000C37BD465DF8047B704700BF80B483B0F0
:1009100000AF78607B6800221A600C37BD465DF836
:10092000047B704780B584B000AF02460B46FA7175
:10093000BB800023FB60F97907F10C02BB880846F5
:10094000042100F08DF8FB6818461037BD4680BDC5
:1009500080B584B000AF02460B46FA71BB8000231D
:10096000FB81F97907F10E02BB880846022100F0ED
:1009700077F8FB8918461037BD4680BD80B584B036
:1009800000AF02460B46FA71BB800023FB73F97976
:1009900007F10F02BB880846012100F061F8FB7BDC
:1009A000DBB218461037BD4680BD00BF80B582B0AF
:1009B00000AF0B463A600246FA71BB80F9793A46BD
:1009C000BB880846042100F0B1F80837BD4680BD59
:1009D00080B582B000AF13460246FA710A46BA806B
:1009E0007B80F979BA1CBB880846022100F09EF88A
:1009F0000837BD4680BD00BF80B582B000AF13464A
:100A00000246FA710A46BA80BB71F979BA1DBB88F1
:100A10000846012100F08AF80837BD4680BD00BFB6
:100A200080B584B000AF0346FB80FB882D200421F5
:100A30001A46FFF7CDFF2D2006210322FFF7DCFF2A
:100A40002D2006210022FFF7D7FF2D200A21FFF7D6
:100A500095FF0346FB73FB7B18461037BD4680BDF0
:100A600080B588B000AFBA600246FA730A46BA8110
:100A7000FB800123FB75FB7B3F2B02D94FF0FF333B
:100A80004EE0FB881BB2002B02DA4FF0FF3347E049
:100A9000FA88BB891344B3F5004F02DB4FF0FF33F4
:100AA0003EE0FB88002B18D0FB7B43F04003DBB219
:100AB0003B76FB887F2B05D8FB88DBB27B76022355
:100AC000FB750CE0FB88DBB27B76FB88DB099BB215
:100AD000DBB2BB760323FB7501E0FB7B3B76FB7D42
:100AE000DBB207F11802104811461A4613F0DCFD7C
:100AF000FB7DDBB21A46BB8913449BB20A481946F8
:100B000008F060FB0346FB83FB7DDBB21A46064B15
:100B10001A44BB89B86811461A4613F0C5FDFB8B11
:100B200018462037BD4680BDF808002080B586B045
:100B300000AFBA600246FA730A46BA81FB8001230D
:100B4000FB74FB88002B1BD0FB7B63F03F03DBB205
:100B50003B75FB887F2B05D8FB88DBB27B750223B6
:100B6000FB7412E0FB88DBB263F07F03DBB27B75C2
:100B7000FB88DB099BB2DBB2BB750323FB7404E08B
:100B8000FB7B63F07F03DBB23B75FB7CDBB207F1E1
:100B900014020F4811461A4613F086FDFB7CDBB2A7
:100BA0001A460B4B1A44BB891046B9681A4613F013
:100BB0007BFDFB7CDBB21A46BB8913449BB2044825
:100BC000194608F0FFFA034618461837BD4680BD9F
:100BD000F808002080B586B000AFBA600246FA730C
:100BE0000A46BA81FB800123FB75FB7B63F07F0320
:100BF000DBB23B75FB7D07F11402154811461A461E
:100C000013F052FDFA7D124B1A44BB891046B968A5
:100C10001A4613F049FDFA7DBB891A440C4B1A445D
:100C2000FB881046396A1A4613F03EFDFB7D9AB2E6
:100C3000BB8913449AB2FB8813449BB204481946FB
:100C400008F0C0FA034618461837BD4680BD00BFFD
:100C5000F808002080B582B000AF786039603B684A
:100C6000002B43DB7B68002B40D0224B1B78002BF2
:100C700002D03B6802333B603B68B3F5806F00DB1A
:100C800034E03B687F2B04DD1B4B1B78002B00D12D
:100C90002CE01A4B1B6823F47F7323F00303174ADD
:100CA0001360164B1A683B681A43144B1A60134BB7
:100CB0001B689BB2082000211A46FFF789FE0D4BE6
:100CC0001B78002B0AD03B689BB2023B9BB20920E9
:100CD00019467A680023FFF729FF07E03B689BB2BB
:100CE000092019467A680023FFF720FF0837BD4620
:100CF00080BD00BF271A0020201A002078DF0020C6
:100D000080B588B002AFF860B9607A603B60BA68BD
:100D10003B6813447B617B69002B37DB7B68002BCE
:100D200034D01C4B1B78002B02D07B6902337B61D3
:100D30007B69B3F5806F00DB28E07B697F2B04DDE6
:100D4000154B1B78002B00D120E0BB689AB23B68A2
:100D50009BB27968009109201146FA68FFF73AFFC3
:100D60000E4B1B6823F47F7323F003030B4A1360BD
:100D70000A4B1A687B691A43084B1A60074B1B68B9
:100D80009BB2082000211A46FFF722FE1837BD4605
:100D900080BD00BF271A0020201A002078DF002025
:100DA00080B582B000AF0023FB80144B1B78022B70
:100DB00007D1134B1B689BB2C3F309039BB2FB80A3
:100DC0000BE0BB1D102002211A460023FFF748FE4E
:100DD000FB88C3F309039BB2FB800A4B1B78002BF3
:100DE00006D0FB88022B03D9FB88023B9BB200E0B4
:100DF000FB8818460837BD4680BD00BF2D1A00206D
:100E000078DF0020271A002090B484B000AF02469B
:100E10000B46FA71BB710023FB60BB7903F003033F
:100E20009B000F2202FA03F3FB60154BBA7992087C
:100E3000D2B21349B8798008C0B2023051F820000C
:100E4000F968C9430140023243F822100C4BBA79C9
:100E50009208D2B20A49B8798008C0B2023051F87B
:100E60002000FC79B97901F00301890004FA01F14D
:100E70000143023243F822101037BD4690BC704740
:100E80000038014080B586B000AF0720012107F08F
:100E90006DF94FF48000012107F086F929480DF023
:100EA000D9FC07F11003184609F05CFA4FF480638F
:100EB0003B6102233B750123BB750123FB750223B4
:100EC0007B7507F110032048194609F0BDF91E484B
:100ED0000A21042209F0C2FA07F11003184609F0AA
:100EE00041FA4FF400633B6102233B750123BB755C
:100EF0000123FB7502237B7507F110031248194685
:100F000009F0A2F910480B21042209F0A7FA0F4BAF
:100F10003B600023BB804BF6FF73FB8000233B81CB
:100F200000237B814FF48043BB813B460548194633
:100F30000DF0CAFC034801210DF088FD1837BD46AD
:100F400080BD00BF0058004000040240801A060027
:100F500080B586B000AF786013460A46FA70BB7061
:100F60004FF448137B615BE07B695A1E7A61002B6A
:100F700056D1354800210DF069FD07F108031846E8
:100F800009F0F0F94FF48063BB6001233B73012348
:100F9000BB730123FB7302237B7307F108032B4808
:100FA000194609F051F907F10803184609F0DAF972
:100FB0004FF40063BB6000233B730123BB73012329
:100FC000FB7302237B7307F108032048194609F0DD
:100FD0003BF900233B6100233B610AE01B484FF4CF
:100FE000806109F029FA142008F088FC3B6901337C
:100FF0003B613B69B3F57A7F07DA14484FF400612F
:1010000009F0CAF90346002BE8D0FFF73BFF3B6924
:10101000B3F57A7F04DB0E4800F024F903460FE0B5
:1010200078684FF400310DF0FDFD0346002B9BD195
:10103000FA78BB78786811461A4600F09FF80346A4
:1010400018461837BD4680BD0058004000040240D5
:10105000C896010880B582B000AF78607868012139
:101060000DF034FD0837BD4680BD00BF80B584B0AB
:1010700000AF78600B46FB704FF40043FB60FB78D9
:10108000786819460DF080FD0CE0FB685A1EFA6086
:10109000002B07D17868FFF7DDFF084800F0E2F881
:1010A000034607E0786806490DF08CFD0346002BE7
:1010B000EBD0002318461037BD4680BDE0960108EE
:1010C0008400070080B584B000AF78604FF400431F
:1010D000FB60786801210DF037FD0DE0FB685A1EBA
:1010E000FA60002B08D17868FFF7B4FF0A4800F0D7
:1010F000B9F80346DBB20AE0786808490DF062FDF2
:101100000346002BEAD078680DF04EFD03461846E2
:101110001037BD4680BD00BF0497010840000300A2
:1011200080B584B000AF78604FF40043FB6078680E
:1011300000210DF009FD0DE0FB685A1EFA60002B3E
:1011400008D17868FFF786FF0A4800F08BF803465D
:10115000DBB20AE0786808490DF034FD0346002B45
:10116000EAD078680DF020FD034618461037BD46DA
:1011700080BD00BF289701084000030080B584B0FF
:1011800000AF786013460A46FA70BB704FF4004314
:10119000FB60786801210DF079FC0CE0FB685A1EB9
:1011A000FA60002B07D17868FFF754FF274800F05A
:1011B00059F8034645E0786825490DF003FD0346DC
:1011C000002BEBD0FB785B00FB70FA78BB7878687B
:1011D00011461A460DF09AFC4FF40043FB60BB78B1
:1011E000002B15D10CE0FB685A1EFA60002B07D1CA
:1011F0007868FFF72FFF174800F034F8034620E027
:10120000786815490DF0DEFC0346002BEBD017E0A3
:10121000BB78012B14D10CE0FB685A1EFA60002B3E
:1012200007D17868FFF716FF0C4800F01BF803465B
:1012300007E078680A490DF0C5FC0346002BEBD0A7
:10124000002318461037BD4680BD00BF4C970108EB
:101250000100030068970108820007008C970108CD
:101260000200030080B590B000AF786007F10C0376
:10127000184604497A6813F031FB012318464037B9
:10128000BD4680BDB097010880B586B000AF7860DC
:101290007B6808337B61304B19682F4B1B6893F8D0
:1012A000B4311A4613465B0013449B000B441833B9
:1012B0005B78DBB25BB2002B00DA4AE07B695B88CB
:1012C0007B82254B1968244B1B6893F8B4311A466E
:1012D00013465B0013449B000B4410335B68FB60B8
:1012E000FB685B687A6992681A60FB689B687A6938
:1012F00052681A607B691B889AB2FB681A80FB6887
:10130000DB681B887B817A8A7B899A4238BF1346C7
:101310007B81FB68DB687A891A80FB6819697B69C5
:1013200003F10C027B89084611461A4613F0BCF9FA
:10133000094B1968084B1B6893F8B4311A461346D9
:101340005B0013449B0010330B44184602F030FD41
:1013500000BF1837BD4680BDDC19002080B584B0C1
:1013600000AF78607B680833FB6002F047FD274BD5
:101370001968264B1B6893F8B4311A4613465B0074
:1013800013449B000B4418335B78DBB25BB2002B39
:1013900013DA1E4B19681D4B1B6893F8B4311A46BB
:1013A00013465B0013449B000B4410335B681846E4
:1013B000F968142213F078F912E0144B1968134BF2
:1013C0001B6893F8B4311A4613465B0013449B0024
:1013D0000B4410335B681846F968082213F064F96F
:1013E0000A4B1968094B1B6893F8B4311A46134627
:1013F0005B0013449B0010330B44184602F0D8FCEA
:1014000002F028FD00BF1037BD4680BDDC1900206A
:1014100080B483B000AF786039607B68DA683B687D
:101420001A607B689A683B685A607B685A883B6898
:101430001A817B689A883B685A817B68DA883B68A6
:101440009A817B681A693B681A610C37BD465DF862
:10145000047B704780B588B000AF78607B68083344
:10146000FB61264B1B68002B0CD007F10803F869C1
:101470001946FFF7CDFF214B1B6807F10802104604
:10148000984736E002F0BAFC1D4B19681C4B1B68EC
:1014900093F8B4311A4613465B0013449B000B4487
:1014A00010335B68002B22D0154B1968144B1B6856
:1014B00093F8B4311A4613465B0013449B000B4467
:1014C00010335B681846F969142213F0EDF80C4BE1
:1014D00019680B4B1B6893F8B4311A4613465B002E
:1014E00013449B0010330B44184602F061FC02F0D9
:1014F000B1FC00BF2037BD4680BD00BFE019002011
:10150000DC19002080B58EB000AF78607B681B7856
:1015100003339BB223F003039BB2BB810023FB8107
:101520007B685B687B610023BB617B681B783B77D2
:101530007B685B787B777B689A687B685B7807F170
:101540001C010231084611461A4613F0ADF807F1A6
:101550001C0207F10C03094811461A4602F0E8F88C
:101560000346FB86B7F93630002B00D0FEE7BB8B75
:101570009BB218463837BD4680BD00BFE4970108CE
:1015800080B594B000AF78607B68FB64FB6C1B880F
:1015900041F63002934253D041F6300293420BDCC5
:1015A00041F6220293421BD041F62E0293421BD0F9
:1015B000B3F5C15F0CD072E0B3F5D15F08D041F64E
:1015C0003522934208D041F63502934204D066E0BA
:1015D0007868FFF7C3FE63E07868FFF755FE5FE0C9
:1015E0007868FFF737FF5BE0FB6C0833BB64BB6CCC
:1015F00004337B6401237B6140233B76FB6C1C330B
:10160000FB6101233B62BB6C1B7887F824307B6C49
:10161000BB627B6C3B6107F1200207F114031046AB
:10162000194609F0BBFA3B7E3B7297F824307B7277
:10163000FB69FB6007F108031846FFF763FF2FE023
:10164000FB6C08333B643B6C0433FB6302233B625B
:101650003B6C1B7887F82430FB6BBB623B6C1B78C0
:10166000FA6B1344FB633B6C5B7887F82C30FB6BA5
:101670003B633B6C5B78FA6B1344FB633B6C9B787E
:1016800087F83430FB6BBB6300237B6107F12002DA
:1016900007F114031046194609F080FA00E0FEE74E
:1016A0005037BD4680BD00BF80B500AF0E4B1B78E4
:1016B000DBB2012B10D10D4B1B78012B01D106F0B1
:1016C00091FB0B4B1B78DBB2012B01D105F0DEFC4B
:1016D000054B00221A7006E0034B1B78DBB2013B7E
:1016E000DAB2014B1A7080BD79190020F81B002076
:1016F0007A19002080B400AF044B1B685A1C034BBE
:101700001A60BD465DF8047B704700BFD8310020E9
:1017100080B400AFFEE700BF80B400AF1EF0040F3E
:101720000CBFEFF30880EFF3098000F08FBABD46DD
:101730005DF8047B704700BF80B400AFFEE700BFD8
:1017400080B400AFFEE700BF80B400AFFEE700BF8B
:1017500080B400AFFEE700BF80B400AFFEE700BF7B
:1017600080B500AF2A4B1B685A1C294B1A60294BC5
:101770001B685A1C274B1A60274B1B685A1C264BA8
:101780001A60264B1B685A1C244B1A60244B1B689A
:101790005A1C234B1A601F4B1B68132B04D90EF0E5
:1017A00047FB1C4B00221A600DF070FA1B4B1B68A4
:1017B000042B1BD9194B00221A601A4B1B6803F02B
:1017C0000103002B10D0174B1B6803F00403002B00
:1017D0000AD0154B1B78002B06D1144B1B78002B1D
:1017E00002D103F03FFC01E010F038FB06F0ACFD45
:1017F000FFF780FF064B1B68B3F5FA7F06D30C4852
:10180000042108F019FE024B00221A6080BD00BFBF
:1018100094190020981900209C190020A01900207C
:10182000F02F0020542D0020041A002080190020E1
:101830000004024080B582B000AF7F23FB7104F04A
:1018400083F804F061F8FB79184604F06BF804F0B3
:101850007BF8034810F09EFB0837BD4680BD00BFF3
:10186000EC97010880B500AF01200DF0D7FA0346D0
:10187000012B07D101200DF0C3FA01200DF0F2FA7F
:1018800008F006FA80BD00BF80B500AF054B02220C
:101890005A61054B01221A7002F002FF024B00222E
:1018A0001A7080BD003C01402E1A002080B500AFA8
:1018B00004200DF0B3FA0346012B05D104200DF0EE
:1018C0009FFA04200DF0CEFA80BD00BF80B500AFB6
:1018D00008200DF0A3FA0346012B05D108200DF0D6
:1018E0008FFA08200DF0BEFA80BD00BF80B500AFB2
:1018F00010200DF093FA0346012B05D110200DF0B6
:101900007FFA10200DF0AEFA80BD00BF80B500AFA9
:1019100020200DF083FA0346012B07D120200DF083
:101920006FFA20200DF09EFA0CF062FE40200DF0C0
:1019300075FA0346012B05D140200DF061FA4020D5
:101940000DF090FA80200DF069FA0346012B05D1C5
:1019500080200DF055FA80200DF084FA4FF480704D
:101960000DF05CFA0346012B09D14FF480700DF0A5
:1019700047FA4FF480700DF075FA0CF007FE4FF443
:1019800000700DF04BFA0346012B07D14FF40070A5
:101990000DF036FA4FF400700DF064FA80BD00BF10
:1019A00080B500AF4FF480600DF038FA0346012B8C
:1019B00007D14FF480600DF023FA4FF480600DF0F2
:1019C00051FA4FF400600DF029FA0346012B07D1BC
:1019D0004FF400600DF014FA4FF400600DF042FA7D
:1019E0004FF480500DF01AFA0346012B07D14FF443
:1019F00080500DF005FA4FF480500DF033FA4FF49B
:101A000000500DF00BFA0346012B07D14FF40050A4
:101A10000DF0F6F94FF400500DF024FA4FF4804029
:101A20000DF0FCF90346012B07D14FF480400DF077
:101A3000E7F94FF480400DF015FA4FF400400DF037
:101A4000EDF90346012B07D14FF400400DF0D8F912
:101A50004FF400400DF006FA80BD00BF80B500AF26
:101A60004FF400400EF076FF0346002B07D04FF4F2
:101A700000400EF0A3FF4FF400100DF0F3F94FF407
:101A800080400EF067FF0346002B07D04FF48040E4
:101A90000EF094FF4FF480000DF0E4F94FF4005085
:101AA0000EF058FF0346002B07D04FF400500EF005
:101AB00085FF4FF400300DF0D5F94FF480500EF053
:101AC00049FF0346002B07D04FF480500EF076FFFD
:101AD0004FF400300DF0C6F94FF400300EF03AFF2D
:101AE0000346002B07D04FF400300EF067FF4FF491
:101AF00000100DF0B7F980BD80B500AF0D4840F281
:101B0000052107F087F80346012B04D1094840F26C
:101B1000052107F0ADF807484FF4837107F07AF814
:101B20000346012B04D103484FF4837107F0A0F85A
:101B300080BD00BF0020014080B400AFBD465DF80D
:101B4000047B704780B500AF084840F2255102F091
:101B500039FB0346002B08D0044802F09BFA0346E9
:101B6000DBB20348194602F083FA80BD0050004002
:101B70000044004080B500AF08F0B2F980BD00BF5E
:101B800080B400AFBD465DF8047B704780B500AF00
:101B90004FF480400EF0DEFE0346002B07D04FF4DA
:101BA00080400EF00BFF4FF480000DF05BF980BD1C
:101BB00080B500AF0548042110F0AEF80346012BB4
:101BC00003D10348042110F0D1F880BD000C00407F
:101BD0000000014080B500AF0DF0E4FA80BD00BF09
:101BE00080B500AF0548064909F04EFB0346002BBF
:101BF00003D00248024909F09FFB80BD40640240C7
:101C00000080201080B500AF0548064909F03CFB74
:101C10000346002B03D00248024909F08DFB80BD2A
:101C2000586402400080001880B400AF064B1B8A45
:101C3000054B054A128A92B222F0010292B21A8230
:101C4000BD465DF8047B704700100040B0B5CAB0D7
:101C500000AF3B1D18603B1D1B681B68C7F8243193
:101C60003B1D1B685B68C7F820313B1D1B689B68E8
:101C7000C7F81C313B1D1B68DB68C7F818313B1DDA
:101C80001B681B69C7F814313B1D1B685B69C7F8EB
:101C900010313B1D1B689B69C7F80C313B1D1B684D
:101CA000DB69C7F80831754810F074F907F10803CB
:101CB00018467349D7F8242112F010FE07F10803E3
:101CC000184610F067F907F1080318466D49D7F870
:101CD000202112F003FE07F10803184610F05AF90C
:101CE00007F1080318466849D7F81C2112F0F6FDE1
:101CF00007F10803184610F04DF907F108031846DC
:101D00006249D7F8182112F0E9FD07F108031846D7
:101D100010F040F907F1080318465D49D7F814217F
:101D200012F0DCFD07F10803184610F033F907F153
:101D3000080318465749D7F8102112F0CFFD07F1D4
:101D40000803184610F026F907F10803184652490F
:101D5000D7F80C2112F0C2FD07F10803184610F065
:101D600019F907F1080318464C49D7F8082112F071
:101D7000B5FD07F10803184610F00CF9484B1B6835
:101D800007F10802104647491A4612F0A7FD07F16D
:101D90000803184610F0FEF8434B1B6807F10802D1
:101DA000104642491A4612F099FD07F108031846F9
:101DB00010F0F0F83E4B1B6807F1080210463D4951
:101DC0001A4612F08BFD07F10803184610F0E2F8EE
:101DD000394B1B6807F10802104638491A4612F0C1
:101DE0007DFD07F10803184610F0D4F8344B1B684A
:101DF00007F10802104633491A4612F06FFD07F149
:101E00000803184610F0C6F82F4B5B6A07F108026A
:101E100010462E491A4612F061FD07F108031846D4
:101E200010F0B8F8284BDB6A002B03DA284810F0D2
:101E3000B1F81FE0244BDB6A03F08043002B03D092
:101E4000244810F0A7F815E01F4BDB6A03F00103EC
:101E5000002B0FD007F108021F4B14461D460FCD73
:101E60000FC495E8070003C4228007F10803184651
:101E700010F090F8194810F08DF8FEE7F897010877
:101E80002898010834980108409801084C980108E6
:101E9000589801086498010894980108B8980108B6
:101EA00038ED00E0C498010828ED00E0D49801085E
:101EB0002CED00E0E498010830ED00E0F498010812
:101EC0003CED00E00499010800ED00E014990108E0
:101ED000289901084499010864990108809901082A
:101EE00090B587B000AF0346FB71FA796D49134690
:101EF0005B001344DB000B445B68FB60FB68002B5A
:101F000000D1CCE0684B1B78DBB20133DAB2664B10
:101F10001A70664B1B68002B09D1FA7913465B00D7
:101F20001344DB005F4A1A44604B1A60B5E05F4B14
:101F30001B687B61FB683B61ABE03A697B695B686E
:101F4000D31A3B613B69002B7CDA7B695B69002B10
:101F500028D07B695969FA7913465B001344DB008A
:101F6000504A13440B61FA797B6959694D4813460D
:101F70005B001344DB00034410335960FA7949498C
:101F800013465B001344DB000B4410337A691A607C
:101F9000FA7913465B001344DB00424A1A447B691A
:101FA0005A611DE0FA79414B19683E4813465B00BF
:101FB0001344DB000344103319603C4B1968FA7971
:101FC00013465B001344DB00364A13444B61FA7935
:101FD00013465B001344DB00324A1A44334B1A6049
:101FE000FA79F9792F480B465B000B44DB00034478
:101FF00010331B6859683B6919442A4813465B0033
:102000001344DB0003445960FA79264913465B0008
:102010001344DB000B4410331968FA792148134646
:102020005B001344DB00034410331B685868FA79E3
:102030001C4C13465B001344DB0023445B68C31A4B
:102040004B602AE03B69002B20DB7B691B69002B7E
:102050001CD1FA79134913465B001344DB000B448F
:1020600010337A695A60FA7913465B001344DB0037
:102070000C4A1A447B691A61FA793969094813468E
:102080005B001344DB000344596006E07B691B6975
:102090007B617B69002B7FF450AFFFF705FB1C379A
:1020A000BD4690BDA419002079190020D419002044
:1020B00080B584B000AF0346FB71FA7913465B002C
:1020C0001344DB002C4A1344FB602C4B1B78DBB21F
:1020D0000133DAB2294B1A70FB685B69002B07D118
:1020E000FB681B69002B03D1254B00221A603DE0E1
:1020F000FB685B69002B14D1FB681A69204B1A60DE
:102100001F4B1B6800225A61FB681B69FA68126941
:102110005168FA6852680A445A60FB6800221A61E2
:1021200024E0FB681B69002B07D1FB685B69002278
:102130001A61FB6800225A6118E0FB685B69FA6863
:1021400012691A61FB681B69FA6852695A61FB6877
:102150001B69FA6812695168FA6852680A445A6041
:10216000FB6800221A61FB6800225A61FFF79CFAA3
:102170001037BD4680BD00BFA4190020791900208A
:10218000D419002080B582B000AF1B4B1B687B6068
:1021900027E07B685B78002B0BD17B681B781846A7
:1021A000FFF786FF7B6801229A707B68DB6898479F
:1021B00014E07B685B78012B10D17B681B78184694
:1021C000FFF776FF7B689A687B685A607B681B78AC
:1021D0001846FFF785FE7B68DB689847064B1B684F
:1021E0007B607B68002B03D07B685B68002BD0D0C2
:1021F0000837BD4680BD00BFD419002080B500AFB0
:10220000074B1B78DBB2012B06D9064B01221A7053
:10221000054B01221A7001E0FFF7B4FF80BD00BF3B
:1022200079190020F81B0020FA1B002080B584B02B
:1022300000AF786013460A46FA70BB70FA78BB7834
:102240001046194601F0B0FA0346FB73FB7B202BC6
:102250000ED001F0D3FD094B1968FA7B13465B00E1
:1022600013449B000B4410337A685A6001F0F2FD6E
:10227000FB7B18461037BD4680BD00BFDC1900202F
:1022800080B584B000AF0023FB73664B664A1A60CA
:10229000644B1B68002B00D1FEE7624B1B6818469D
:1022A0004FF4E27101F0EEFD604B00221A705D4BBD
:1022B0001B6803F29913184611210FF067FD0346BE
:1022C000BB81B7F90C30002B00D0FEE7554B1B68E3
:1022D00003F2991318462221112200230FF068FD02
:1022E000504B1B680433184633210FF04FFD034653
:1022F0007B81B7F90A30002B00D0FEE7494B1B6801
:1023000003F5CC73184633210FF040FD03463B81A3
:10231000B7F90830002B00D0FEE7424B1B681033A2
:1023200018464FF4C07101F0ADFD3E4B1B68002212
:1023300083F890210023FB733EE03A4B1868FA7B48
:10234000FB7B0133D9B213465B0013449B0003446B
:1023500018330A469A70334B1968FA7B13465B00B0
:1023600013449B000B44183308225A702D4B1968F4
:10237000FA7B13465B0013449B0010330B44184652
:1023800011210FF003FD0346FB80B7F90630002B47
:1023900000D0FEE7234B1968FA7B13465B00134419
:1023A0009B0010330B4418462221112200230FF00A
:1023B000FFFCFB7B0133FB73FB7B1F2BBDD9194B50
:1023C0001B68202283F89221164B1B68202283F879
:1023D0009121144B1B68012283F89B21114B1B6830
:1023E00003F5CE73184633210FF0D0FC0346BB80B3
:1023F000B7F90430002B00D0FEE70A4B1B6803F24C
:102400009D13184611210FF0C1FC03467B80B7F9DC
:102410000230002B00D0FEE7054B00221A70103767
:10242000BD4680BDDC190020BC320020B432002043
:10243000E419002080B584B000AF0023FB73424B49
:102440001B68002283F89B213F4B1B6803F5CE736A
:10245000184600210FF09AFC0346BB81B7F90C30F7
:10246000002B00D0FEE7384B1B6803F29D13184683
:1024700000210FF08BFC03467B81B7F90A30002B5B
:1024800000D0FEE7304B1B6803F299131846002179
:102490000FF07CFC03463B81B7F90830002B00D0DD
:1024A000FEE7294B1B680433184600210FF06EFC31
:1024B0000346FB80B7F90630002B00D0FEE7224B25
:1024C0001B6803F5CC73184600210FF05FFC034630
:1024D000BB80B7F90430002B00D0FEE70023FB736C
:1024E00016E0194B1968FA7B13465B0013449B00F6
:1024F00010330B44184600210FF048FC03467B8044
:10250000B7F90230002B00D0FEE7FB7B0133FB73F1
:10251000FB7B1F2BE5D90C4B1B68002283F8902115
:10252000094B1B68202283F89121074B1B6820224E
:1025300083F89221044B00221A60034B00221A6098
:102540001037BD4680BD00BFDC19002080B584B0C7
:1025500000AF7860124B1B78DBB20133DAB2104B5C
:102560001A70104B1B6893F89A31012B0FD10D4B49
:102570001B6803F29913184622210FF007FC03464B
:10258000FB81B7F90E30002B00D0FEE704E00648CF
:10259000002100220FF034FC1037BD4680BD00BF83
:1025A000B4320020DC1900202133000880B586B049
:1025B00000AFF860B9607A601C4B1B6804331846A2
:1025C00001F008FC194B1B68012283F89A21F86876
:1025D0007968BA6800F06CF90346FB82B7F91630E7
:1025E000002B16D1124B1B78002B0DD100233B6121
:1025F0000F4B01221A7042F2D0033B6100BF3B69CE
:102600005A1E3A61002BFAD100F01AFE0346FB82F3
:1026100005E0064B1B680433184601F009FCFB8AF1
:102620001BB218461837BD4680BD00BFDC1900201C
:10263000E419002080B588B000AFB9607A603B60D3
:102640000346FB732023FB773B68DB68002B00D13C
:10265000FEE73B685B88002B00D1FEE7FB7B03F0C5
:102660000F03072B02DD4FF6F77380E0FB7B03F0CF
:102670000F03DBB20F20194601F096F80346FB77F3
:10268000FB7F202B02D14FF6300370E001F0B6FB48
:102690003B68DB68BB617B687B61374B1968FA7FFD
:1026A00013465B0013449B000B44103307F11402E4
:1026B0005A6001F0CFFB304B1B6803F5CE73184610
:1026C00001F088FB2C4B1B6803F29D131846222156
:1026D000112200230FF06CFB274B1B6893F89B31F2
:1026E000012B06D8244B1B6803F29D13184601F0FA
:1026F0004BFB214B1B680433184601F06BFB1E4B50
:102700001B6893F89B31012B00D8FEE71A4B1B681E
:1027100093F89B21013AD2B283F89B21164B1B6898
:1027200003F5CE73184601F083FBB86839687A6800
:1027300000F0BEF80346BB830F4B1B6804331846FA
:1027400001F076FBB7F91C30002B0BD10A4B19684E
:10275000FA7F13465B0013449B0010330B4418466A
:1027600001F012FBFB7F184601F0F0F8BB8B1BB2A7
:1027700018462037BD4680BDDC19002080B586B0E4
:1027800000AFB9607A603B600346FB734FF6F573A8
:10279000FB82464B1B6803F5CE73184601F01AFB0B
:1027A000424B1B6803F29D1318462221112200237D
:1027B0000FF0FEFA3D4B1B6893F8A1311A46FB7BE4
:1027C00003F00F0342FA03F303F00103002B09D0D7
:1027D000364B1B6803F5CE73184601F029FB4FF604
:1027E000FF735DE0314B1B6893F89B31022B1DD8C2
:1027F0002E4B1B6893F8A0311A46FB7B03F00F03A6
:1028000042FA03F303F00103002B08D0274B1B68A7
:1028100003F5CE73184601F00BFBFB8A40E0234B17
:102820001B6803F29D13184601F0AEFA1F4B1B689C
:1028300093F89B31022B0DD900BF1C4B1B6804334E
:10284000184601F0C7FA194B1B6893F89B31022B0D
:1028500009D807E0154B1B6803F5CE73184601F045
:10286000E7FA96E7FEE7114B1B6893F89B21013AC4
:10287000D2B283F89B210D4B1B6803F5CE7318462B
:1028800001F0D6FAB86839687A6800F011F80346A2
:10289000FB82064B1B680433184601F0C9FAFB8A19
:1028A0001BB218461837BD4680BD00BFDC1900209A
:1028B00080B58AB000AFF860B9607A60002387F80D
:1028C0002730FB68002B00D1FEE77D4B1B68FA68C0
:1028D000C3F8A4217A4B1B687A68C3F8A821784B07
:1028E0001B68BA68C3F8AC21754B1B68FA6812887C
:1028F000DA80734B1A68BB68002B10D0FB689B789A
:1029000003339BB223F0030399B2BB681B880333E4
:102910009BB223F003039BB20B449BB206E0FB681F
:102920009B7803339BB223F003039BB21381BB68F4
:10293000002B1ED0BB685B881BB2002B19DABB686A
:102940001B88002B15D0BB685B889BB25B429BB297
:102950009AB2BB685A80012387F82730584B1B680E
:10296000574A12681189BA68528892B20A4492B2E0
:102970001A810423BB84524B1B681B681A46B7F9A3
:10298000243010464F491A4606F092FE03467B84D7
:10299000B7F92420B7F922309A4200D0FEE7042389
:1029A0003B84474B1B681B681946454B1B689A1DA7
:1029B000B7F92030084611461A4606F079FE03465C
:1029C000FB83B7F92020B7F91E309A4200D0FEE70A
:1029D0007B68002B1FD0FB689B78002B1BD0FB680B
:1029E0009B7803339BB29BB223F00303BB83344B2E
:1029F0001B681B681A46B7F91C30104679681A46DE
:102A000006F056FE03467B83B7F91C20B7F91A304F
:102A10009A4200D0FEE797F82730012B1ED1BB6801
:102A20005B889BB203339BB29BB223F003033B83CF
:102A3000234B1B681B681946BB68DA68B7F9183066
:102A4000084611461A4606F033FE0346FB82B7F9E4
:102A50001820B7F916309A4200D0FEE7BB68002B69
:102A600028D0BB681B88002B24D0FB689B7803F020
:102A70000303002B00D0FEE7BB681B8803339BB227
:102A80009BB223F00303BB820D4B1B681B681946E6
:102A9000BB689A68B7F91430084611461A4606F022
:102AA00007FE03467B82B7F91420B7F912309A4229
:102AB00000D0FEE700231BB218462837BD4680BD74
:102AC000DC190020A099010880B596B000AF002362
:102AD000FB64082387F85330AB4B1B680022C3F814
:102AE000B021A94B1B680022C3F8B82107F10C02E2
:102AF000FB1D1046194600F0CFFC0346A7F84A30EC
:102B0000B7F94A30002B00D0FEE707F10C031B8811
:102B1000A7F8483007F10C035B88043BA7F8463060
:102B2000B7F84830082B21D0974B1B6807F10C02EF
:102B3000127983F89B21944B1B6807F10C02D27920
:102B400083F8A021904B1B6807F10C02927983F85F
:102B5000A1218D4B1B6893F89B31012B06D98A4B21
:102B60001B6803F29D13184601F022F9B7F84830AC
:102B7000184600F02DFC844B1B6893F8BC3187F895
:102B8000453097F84530012B00F0D481022B03D05B
:102B9000002B00F0AA80DBE2FB6C002B00D0FEE7EC
:102BA000794B1B68794AC3F8B021774B1B68D3F87F
:102BB000B031FB64F86CA82101F064F9FB6C002BC8
:102BC00000D1FEE7FB6C1A4607F10C0303CB106043
:102BD0005160B7F84630033323F00303A02B08DC21
:102BE000B7F8463003339BB223F00303A7F8543001
:102BF00002E0A023A7F85430B7F84630002B1BD0D2
:102C0000B7F85430A7F842305F4B1B681B68194671
:102C1000FB6C03F10802B7F94230084611461A4628
:102C200006F0A0FD0346A7F84030B7F94220B7F9F7
:102C300040309A4200D0FEE7B7F84630033323F025
:102C40000303A02B2BDDB7F8463003339BB223F0F0
:102C500003039BB2A03BA7F854301CE00423FB877E
:102C6000494B1B681B681946B7F93E3007F108024B
:102C7000084611461A4606F075FD0346BB87B7F9AC
:102C80003E20B7F93C309A4200D0FEE7B7F8543006
:102C9000043BA7F85430B7F85430002BDED101F0D4
:102CA000ADF8B7F8482041F203039A420BD0B7F8C9
:102CB000482041F203239A4205D0B7F8482041F258
:102CC00006039A4206D1FB6C08339B7803F00F038E
:102CD00087F85330B7F8482097F853301046194614
:102CE00000F09CFF01F0B6F832E2B7F8483041F24C
:102CF0000B02934204D041F20B22934204D007E02E
:102D00000C2387F8523006E0182387F8523002E08F
:102D1000042387F8523004237B871B4B1B681B68F6
:102D20001946B7F93A3007F10C0204320846114649
:102D30001A4606F017FD03463B87B7F93A20B7F964
:102D400038309A4200D0FEE707F10C0304339B7839
:102D500003F00F03072B00DDFEE701F04FF807F14A
:102D60000C0304339B7803F00F03DBB2B7F8482061
:102D70001046194600F052FF0346FB86B7F936307D
:102D8000002B05D0FEE700BFDC19002080340020B6
:102D9000A14B1968A04B1B6893F8B4311A4613462F
:102DA0005B0013449B000B4410335B681A6807F107
:102DB0000C03043310461946042211F075FC97F8F1
:102DC0005230042B29D997F852309BB2043B9BB266
:102DD000BB86914B1B681B6819468F4B18688E4B3E
:102DE0001B6893F8B4311A4613465B0013449B00EA
:102DF000034410335B681B681A1DB7F9343008466A
:102E000011461A4606F0AEFC03467B86B7F934201D
:102E1000B7F932309A4200D0FEE707F10C030433D1
:102E20001B881BB2002B72DD07F10C0304331B88D7
:102E30009BB203F00303A7F8563007F10C030433E9
:102E40001B889BB223F00303A7F85430B7F8543023
:102E5000032B25D9B7F854303B866F4B1B681B6892
:102E600019466D4B18686C4B1B6893F8B4311A46C1
:102E700013465B0013449B00034410335B685A689D
:102E8000B7F93030084611461A4606F06BFC034687
:102E9000FB85B7F93020B7F92E309A4200D0FEE713
:102EA000B7F85630002B32D00423BB855A4B1B6831
:102EB0001B681946B7F92C3007F10802084611467D
:102EC0001A4606F04FFC03467B85B7F92C20B7F96C
:102ED0002A309A4200D0FEE74F4B19684E4B1B68D0
:102EE00093F8B4311A4613465B0013449B000B441D
:102EF00010335B685A68B7F85430D118B7F85630B9
:102F000007F10802084611461A4611F0CDFB424B64
:102F10001968414B1B6893F8B4311A4613465B009D
:102F200013449B0010330B44184600F041FF00F09F
:102F300091FF0DE1384B1B68D3F8A431DB780333E4
:102F40009BB29BB223F003033B85334B1B681B688A
:102F50001946314B1B68D3F8A821B7F92830084629
:102F600011461A4606F0FEFB0346FB84B7F92820FB
:102F7000B7F926309A4200D0FEE7274B1B68D3F8FA
:102F8000AC31002B00F0E380234B1B68D3F8AC314D
:102F90005B88002B00F0DB8007F10C035A881E4B86
:102FA0001B68D3F8A431DB78D31A9BB2043B9BB2E5
:102FB000A7F85030184B1B68D3F8AC31B7F8502045
:102FC0009A80B7F95030002B06DC134B1B68D3F8FE
:102FD000AC3100225A80BAE00F4B1B68D3F8AC31F9
:102FE0005B88B7F950201BB29A4217DD0A4B1B6869
:102FF000D3F8AC315B889BB203F00303A7F85630DB
:10300000054B1B68D3F8AC315B889BB223F00303FC
:10301000A7F854300EE000BFDC190020B7F850309C
:1030200003F00303A7F85630B7F8503023F003033A
:10303000A7F85430B7F85430032B1BD9B7F85430E5
:10304000BB84544B1B681B681946524B1B68D3F852
:10305000AC31DA68B7F92430084611461A4606F052
:1030600081FB03467B84B7F92420B7F922309A42CA
:1030700000D0FEE7B7F85630002B2ED004233B8457
:10308000444B1B681B681946B7F9203007F108024A
:10309000084611461A4606F065FB0346FB83B7F95E
:1030A0002020B7F91E309A4200D0FEE7394B1B684A
:1030B000D3F8AC31DA68B7F85430D118B7F85630D5
:1030C00007F10802084611461A4611F0EDFAB7F862
:1030D0005030043B9BB2A7F850302E4B1B68D3F8FE
:1030E000AC315B88B7F950201BB29A422FDDB7F89C
:1030F0005020284B1B68D3F8AC315B889BB223F07F
:1031000003039BB2D31AA7F854301CE00423BB83FB
:10311000204B1B681B681946B7F91C3007F10802E1
:10312000084611461A4606F01DFB03467B83B7F995
:103130001C20B7F91A309A4200D0FEE7B7F8543095
:10314000043BA7F85430B7F85430002BDED100BF51
:10315000FB79002B17D0FB793B830E4B1B681B6858
:103160001946B7F9183007F10C02084611461A46FD
:1031700006F0F8FA0346FB82B7F91820B7F91630C3
:103180009A4200D0FEE700231BB218465837BD46CE
:1031900080BD00BFDC19002080B584B000AF0023E3
:1031A000FB600023FB7200237B60234B1B68D3F87A
:1031B000B0313B60204B1B68D3F8B831002B00D1F5
:1031C00036E00023BB7213E0BA7A1C4B33F822209E
:1031D0003B681B889A4208D1BB7A184A9B0013446B
:1031E0009B78FB600123FB7205E0BB7A0133BB7265
:1031F000BB7A0E2BE8D9FB7A002B0AD10E4B1B6849
:10320000D3F8B8310C4A1268D2F8B021104698476A
:103210000EE0094B1B68D3F8B03104337B607B6848
:10322000FA681A60044B1B68D3F8B831786898477D
:103230001037BD4680BD00BFDC190020E4990108AD
:1032400080B582B000AF44E0324B1B6893F89F21F9
:10325000314B1B78DBB29A4234D0FFF735FC034682
:10326000FB80B7F90630002B00D0FEE7294B1B6826
:1032700093F89F210132D2B283F89F21254B1B681E
:1032800093F8BC31012B0FD1224B1B68002283F82D
:103290009A21204B1B6803F2991318462221112210
:1032A00000230EF085FD14E01A4B1B6893F8BC3127
:1032B000022B0ED1FFF770FF164B1B680022C3F8DC
:1032C000B02106E0134B1B6803F29913184600F077
:1032D0005BFD104B1B6893F89A31012BB4D00D4B5A
:1032E0001B680433184600F0A3FD0A4B1B6893F8D3
:1032F0009F21094B1B78DBB29A4204D0074800217A
:1033000000220EF07DFD00231BB218460837BD4693
:1033100080BD00BFDC190020B4320020213300083A
:1033200080B584B000AF7860274B1B680433184623
:1033300000F050FD244B1B6893F89F21234B1B7812
:10334000DBB29A4207D1204B1B680433184600F0C9
:103350006FFD002333E0FFF7B7FB0346FB81B7F9AE
:103360000E30002B00D0FEE7174B1B6893F89F210F
:103370000132D2B283F89F21134B1B6893F8BC3102
:10338000022B04D0032B12D0002B10D00EE00E4BDA
:103390001B68D3F8B031002B00D1FEE7FFF7FCFE2D
:1033A000094B1B680022C3F8B02101E0FEE700BF13
:1033B000054B1B680433184600F03AFD00231BB28E
:1033C00018461037BD4680BDDC190020B4320020FD
:1033D00080B485B000AF0346FB800023FB6001236F
:1033E000FB72FB8803F480639BB2002B3DD1FB880A
:1033F000632B02D10323FB7237E0FA8841F20A0300
:103400009A4209D0FA8841F20B039A4204D0FA8812
:1034100041F20B239A4202D10023FB7225E00223E2
:10342000FB72FB88DB0A9BB2DBB203F00703BB72C3
:10343000BB7A072B00D9FEE7BA7A134B53F8223038
:10344000FB60FA8841F62E039A4204D0FA8841F6CE
:1034500030039A4202D10D4BFB6006E0FA8841F638
:1034600022039A4201D10A4BFB600A4B1B68FA7A8D
:1034700083F8BC21074B1B68FA68C3F8B8211437DE
:10348000BD465DF8047B7047209A0108811500084D
:1034900055140008DC19002080B58CB000AF7860AE
:1034A00039600023FB6204233B859D4B1B681B682E
:1034B0001A46B7F9283010469A491A4606F0F8F825
:1034C0000346FB84B7F92820B7F926309A4200D08A
:1034D000FEE70423BB84924B1B681B681A46B7F9AE
:1034E0002430104679681A4606F03CF903467B847E
:1034F000B7F92420B7F922309A4200D0FEE740E025
:10350000FB6AB3F5FA6F00D3FEE7FB6A03F003032F
:10351000002B17D104233B84814B1B681B68194681
:103520007B681A1DB7F92030084611461A4606F086
:1035300019F90346FB83B7F92020B7F91E309A42E8
:1035400000D0FEE7002387F82B300FE097F82B30F0
:103550007A68134497F82B20013279680A4412786C
:103560001A7097F82B30013387F82B3097F82B30EF
:10357000062BEBD97B68073300221A70FB6A0133F4
:10358000FB627B681B6803F00403002B0FD07B6891
:103590001B6823F0802222F08002614B1B6893F8A5
:1035A0009E3103F00301604B0B439A420ED07B68BF
:1035B0001B6803F00403002BA2D17B681B6823F077
:1035C000802323F08003594A934299D1FB6A03F088
:1035D0000303FB62FB6A002B1FD07B685A687B6881
:1035E0001A60FB6ABB834E4B1B681B681946FB6A5B
:1035F000C3F104037A681A44B7F91C30084611462F
:103600001A4606F0AFF803467B83B7F91C20B7F9DA
:103610001A309A4200D0FEE715E004233B83404B6A
:103620001B681B681A46B7F91830104679681A46A5
:1036300006F098F80346FB82B7F91820B7F9163060
:103640009A4200D0FEE715E004233B82344B1B680E
:103650001B681A46B7F91030104679681A4606F00A
:1036600081F80346FB81B7F91020B7F90E309A4272
:1036700000D0FEE77B681B6803F00403002B0FD02B
:103680007B681B6823F0802222F08002244B1B6899
:1036900093F89E3103F00301234B0B439A42D3D09E
:1036A0007B681B6803F00403002B08D17B681B6850
:1036B00023F0802323F080031C4A9342C4D0184B8C
:1036C0001B6893F89E210132D2B283F89E21042315
:1036D000BB82134B1B681B6819467B681A1DB7F920
:1036E0001430084611461A4606F03CF803467B8221
:1036F000B7F91420B7F912309A4200D0FEE7FB6AFE
:10370000002B04D0FB6AC3F10403DBB200E000230A
:103710003A68137000231BB218463037BD4680BD8F
:10372000DC190020A89901083C5CCD2B3A5CCD2B1C
:1037300080B58CB000AFF860B9607A60194B1B6837
:1037400093F89A3187F82F30164B1B6803F5D27324
:1037500007F11002104619461C2210F0A5FF114B6C
:103760001B68002283F89A21F8687968BA68FFF725
:103770009FF80346BB850B4B1B6897F82F2083F8F7
:103780009A21084B1B6803F5D27207F1100310460B
:1037900019461C2210F088FFBB8D1BB2184630372B
:1037A000BD4680BDDC19002080B584B000AF024664
:1037B0000B46FA71BB712023FB7300F01FFB624BB9
:1037C0001B6893F890311F2B25D85F4B1B6893F82B
:1037D0009031FB735C4B1968FA7B13465B00134412
:1037E0009B000B4418339B781F2B0ED8564B19683F
:1037F000554B1868FA7B13465B0013449B00034447
:1038000018339B7881F8903109E04F4B1B682022D8
:1038100083F8902103E000F01DFBFB7B8FE04A4B17
:103820001968FA7B13465B0013449B000B44183362
:10383000FA791A70BB79072B0BD8434B1968FA7BBE
:1038400013465B0013449B000B441833BA795A703B
:1038500024E023E03C4B1868FA7B3B4B1B6893F851
:10386000911113465B0013449B00034418330A462E
:103870009A70354B1B68FA7B83F8912100F0EAFAC5
:10388000314B1968FA7B13465B0013449B001033DD
:103890000B44184600F078FA00F0B0FABB79072B19
:1038A0000AD8294B1B68D3F89421BB79012101FA6E
:1038B00003F31340002BCDD1234B1B68D3F8942185
:1038C000FB79012101FA03F31340002B02D0BB79ED
:1038D000082BBFD0BB79072B0DD81B4B1B681A4A8E
:1038E0001268D2F89411BA79012000FA02F20A4360
:1038F000C3F894210CE0144B1B68134A1268D2F8E9
:103900009411FA79012000FA02F20A43C3F89421D3
:103910000D4B1868FA7B0C4B1B6893F892111346F9
:103920005B0013449B00034418330A469A70064B0D
:103930001B68FA7B83F8922100F08CFAFB7B184617
:103940001037BD4680BD00BFDC19002090B585B0A2
:1039500000AF0346FB7100F051FA7C4B1B6893F8F3
:103960009131FB736CE0794B1968FA7B13465B006D
:1039700013449B000B4418331978744B1868FA7978
:1039800013465B0013449B00034418331B78994291
:103990004BD16E4B1968FA7B13465B0013449B00B6
:1039A0000B4418335B7803F00F03082B27D0674BC9
:1039B0001968FA7913465B0013449B000B441833D3
:1039C0005B7803F00F03072B2FDC604B1968FA7B41
:1039D00013465B0013449B000B4418335B78194675
:1039E0005A4B1868FA7913465B0013449B00034452
:1039F00018335B784B4003F00F03002B15D1534B6A
:103A00001B6803F29112FB7B1046194600F0A0F8E8
:103A10004E4B1968FA7B13465B0013449B0010332E
:103A20000B44184600F0C4F90DE0484B1968FA7BC6
:103A300013465B0013449B000B4418339B78FB73C5
:103A4000FB7B1F2B8FD9414B1968FA7913465B001A
:103A500013449B000B4418335B7803F00F03072BD0
:103A600019DC3A4B1968394B1B68D3F89401374B72
:103A70001C68FA7913465B0013449B0023441833F7
:103A80005B7803F00F03012202FA03F3DB430340E8
:103A9000C1F8943116E02D4B19682C4B1B68D3F8F4
:103AA00094012A4B1C68FA7913465B0013449B006F
:103AB000234418331B78012202FA03F3DB4303404B
:103AC000C1F89431214B1968FA7913465B0013440D
:103AD0009B000B44103300225A601C4B1968FA7982
:103AE00013465B0013449B000B44183300221A70EA
:103AF000164B1968FA7913465B0013449B000B447C
:103B0000183308225A70114B1B6803F5C972FB79F0
:103B10001046194600F01CF80C4B1868FA790B4B4C
:103B20001B6893F8901113465B0013449B000344F9
:103B300018330A469A70054B1B68FA7983F890216E
:103B400000F088F91437BD4690BD00BFDC19002095
:103B500090B484B000AF78600B46FB702E4B1968B0
:103B60007B681B781A4613465B0013449B000B448A
:103B700018339B78202B03D17B6820221A7046E0F3
:103B80007B681B78FA789A420CD1234B1968FA7833
:103B900013465B0013449B000B4418339A787B68F0
:103BA0001A7034E07B681B78FB732DE01A4B1968A0
:103BB000FA7B13465B0013449B000B4418339B783D
:103BC000FA789A4215D1144B1868FA7B124B1C688C
:103BD000F9780B465B000B449B002344183399781B
:103BE00013465B0013449B00034418330A469A7043
:103BF0000DE0094B1968FA7B13465B0013449B00E8
:103C00000B4418339B78FB73FB7B1F2BCED91037EB
:103C1000BD4690BC704700BFDC19002080B485B061
:103C200000AF02460B46FA807B71554B1B6893F838
:103C30009231FB7397E0524B1968FA7B13465B0095
:103C400013449B000B4418335B78DBB25BB2002B50
:103C500003DAFB8823F40073FB80494B1968FA7B75
:103C600013465B0013449B000B4418331B780F2B47
:103C700022D1434B1968FA7B13465B0013449B0027
:103C80000B4418335B787A799A4215D1FA8841F25D
:103C90000A039A4209D0FA8841F20B039A4204D0EF
:103CA000FA8841F20B239A4206D1354B1B68FA7B06
:103CB00083F8B42100235CE0314B1968FA7B13468A
:103CC0005B0013449B000B4418331B78083B2D4AC0
:103CD000DB0013445B88FA889A4239D17979284B02
:103CE0001868FA7B13465B0013449B0003441833A7
:103CF0005B7803F00F03994202D17B79072B0DD932
:103D00001F4B1968FA7B13465B0013449B000B445E
:103D100018335B7803F00F03082B19D1184B19687F
:103D2000174B1868FA7B13465B0013449B0003444F
:103D300018331B78083B134ADB0013445B68C1F857
:103D4000B8310F4B1B68FA7B83F8B421002310E0D5
:103D50000B4B1968FA7B13465B0013449B000B4422
:103D600018339B78FB73FB7B1F2B7FF664AF4FF6FA
:103D7000FD731BB218461437BD465DF8047B7047CF
:103D8000DC190020AC99010880B584B000AF7860E0
:103D9000786822211122FF230EF00AF80346FB81E6
:103DA000B7F90E30002B00D0FEE71037BD4680BDBE
:103DB00080B584B000AF7860786822210DF0E6FF0E
:103DC0000346FB81B7F90E30002B00D0FEE7103719
:103DD000BD4680BD80B584B000AF7860786833217F
:103DE0004422FF230DF0E4FF0346FB81B7F90E30B8
:103DF000002B00D0FEE71037BD4680BD80B582B0F5
:103E000000AF0A4B1B6803F5CC73184633214422DC
:103E1000FF230DF0CDFF0346FB80B7F90630002BE2
:103E200000D0FEE70837BD4680BD00BFDC1900208A
:103E300080B584B000AF7860786833210DF0A6FFBC
:103E40000346FB81B7F90E30002B00D0FEE7103798
:103E5000BD4680BD80B582B000AF094B1B6803F53D
:103E6000CC73184633210DF091FF0346FB80B7F960
:103E70000630002B00D0FEE70837BD4680BD00BFEE
:103E8000DC19002080B582B000AF78600B467B80E3
:103E90007B88786800211A4610F0A0FC0837BD46E0
:103EA00080BD00BF80B582B000AF78607868102117
:103EB000FFF7E8FF0837BD4680BD00BF80B58AB078
:103EC00000AF7860396000237B6200233B620023EF
:103ED000FB610023BB617B681B8A9BB27B627B6AB0
:103EE00023F440537B623B68DB887A6A13437B622E
:103EF0007B6A9AB27B681A827B689B899BB27B62E1
:103F00007B6A23F4B05323F00C037B623B689A88EE
:103F10003B681B8913439AB23B685B8913439BB28E
:103F20007A6A13437B627B6A9AB27B689A817B6868
:103F30009B8A9BB27B627B6A23F440737B623B6803
:103F40009B897A6A13437B627B6A9AB27B689A8206
:103F500007F10803184604F023F87A68314B9A42B7
:103F600003D07A68304B9A4202D17B693B6201E010
:103F70003B693B627B689B899BB29BB21BB2002B67
:103F80000CDA3A6A13469B0013449A001A443B68C1
:103F90001B685B00B2FBF3F3FB610BE03A6A13466C
:103FA0009B0013449A001A443B681B689B00B2FBB9
:103FB000F3F3FB61FA691D4BA3FB02135B091B01C1
:103FC0007B627B6A1B09642202FB03F3FA69D31A42
:103FD000BB617B689B899BB29BB21BB2002B0DDA45
:103FE000BB69DB0003F13202104BA3FB02135B0938
:103FF00003F007037A6A13437B620CE0BB691B0181
:1040000003F13202094BA3FB02135B0903F00F0318
:104010007A6A13437B627B6A9AB27B681A8128377B
:10402000BD4680BD00100140001401401F85EB51CA
:1040300080B483B000AF78600B46FB70FB78002B38
:1040400008D07B689B899BB243F400539AB27B688B
:104050009A8107E07B689B899BB223F400539AB254
:104060007B689A810C37BD465DF8047B704700BFC2
:1040700080B483B000AF78600B467B807B88C3F34D
:1040800008039AB27B689A800C37BD465DF8047BC2
:10409000704700BF80B483B000AF78607B689B88B6
:1040A0009BB2C3F308039BB218460C37BD465DF8BC
:1040B000047B704780B483B000AF786013460A4633
:1040C0007A807B707B78002B08D07B689B8A9AB2C1
:1040D0007B8813439AB27B689A8209E07B689B8A4B
:1040E0009AB27B88DB439BB213409AB27B689A8278
:1040F0000C37BD465DF8047B704700BF80B487B0C5
:1041000000AF786013460A467A807B7000233B61DB
:104110000023FB600023BB6000237B617B687B6125
:104120007B88DBB25B09DBB23B617B8803F01F035A
:10413000FB60FB68012202FA03F3BB603B69012BC1
:1041400003D17B690C337B6109E03B69022B03D10E
:104150007B6910337B6102E07B6914337B617B7880
:10416000002B06D07B697A691168BA680A431A6025
:1041700006E07B697A691168BA68D2430A401A601E
:104180001C37BD465DF8047B704700BF80B485B026
:1041900000AF78600B467B800023FB737B681B8835
:1041A0009AB27B8813409BB2002B02D00123FB7391
:1041B00001E00023FB73FB7B18461437BD465DF816
:1041C000047B704780B487B000AF78600B467B807B
:1041D0000023FB6000237B610023BB600023FB7492
:1041E0007B88DBB25B09DBB2BB607B8803F01F031B
:1041F0007B617B69012202FA03F37B61BB68012BBF
:1042000006D17B689B899BB27A6913407B610FE082
:10421000BB68022B06D17B681B8A9BB27A6913406C
:104220007B6105E07B689B8A9BB27A6913407B6166
:104230007B881B0A9BB2FB60FB68012202FA03F336
:10424000FB607B681B889BB2FA681340FB607B694C
:10425000002B05D0FB68002B02D00123FB7401E08A
:104260000023FB74FB7C18461C37BD465DF8047BBD
:10427000704700BF80B483B000AF0346FB71044BAE
:10428000FA791A600C37BD465DF8047B704700BFB1
:1042900020000E4280B485B000AF78600023FB732D
:1042A000084B5A687B681340002B02D00123FB7334
:1042B00001E00023FB73FB7B18461437BD465DF815
:1042C000047B70470070004080B582B000AF0020D2
:1042D0000CF0BCFA024643F2F2239A4204D000F0FA
:1042E00059F80123FB711AE07B2003F0D5FF034648
:1042F000002B02D17A2003F0CFFF0120FFF7CAFF85
:104300000220FFF7C7FF4FF08050012103F04CFF60
:104310000120FFF7AFFF0BF093FF0023FB714FF479
:10432000807000210CF008FA4FF4805000210CF04E
:10433000BDFA4FF4005000210CF0B8FA4FF4807031
:104340000CF0F0FA4FF400700CF0ECFA4FF400307F
:104350000AF088FD4FF400400CF030FB4FF40030C1
:104360000CF02CFB4FF400100AF07CFD4FF4804061
:104370000CF024FB4FF480000AF074FD00200021B3
:104380000CF028FA00200CF079FAFB79184608376F
:10439000BD4680BD80B584B000AF4FF08050012194
:1043A00003F002FF0120FFF765FF012003F0D8FDB5
:1043B00000BF412003F070FF0346002BF9D04FF4FB
:1043C000807003F095FE012003F0C0FE0BF038FF73
:1043D0007F23BB60FF23FB6000237B603B1D1846EF
:1043E0000BF0AAFE284B0022DA70274B00221A702D
:1043F000254B00225A70244B00229A70224B002237
:104400001A73214B00229A601F4B00225A60012030
:104410004FF480711C4A0CF0F3F84FF480500021E7
:104420000CF044FA4FF4807000210CF085F94FF441
:1044300080700CF077FA154B0022DA70134B0122D2
:104440005A70124B01229A70104B06221A700120EA
:104450000E490CF001F80E4B0022DA700C4B0022D2
:104460001A700B4B00225A70094B00229A700120DF
:1044700007490BF021FF002043F2F2210CF0CEF9A6
:104480001037BD4680BD00BF4035002058350020A4
:104490005435002080B584B000AF786007F10C037C
:1044A000362002211A460023FCF7DAFA7B6803F073
:1044B0000703002B23D07B6803F00703032B02D0F4
:1044C000072B0BD015E03B7BDBB223F00303DBB201
:1044D00043F00103DBB2DBB23B7310E03B7BDBB2AA
:1044E00023F00303DBB243F00203DBB2DBB23B7326
:1044F00005E03B7B23F00303DBB23B7300BF7B682B
:1045000003F03803002B2AD07B6803F03803282BF4
:104510000ED0382B17D0082B1BD13B7BDBB223F0FE
:104520000C03DBB243F00403DBB2DBB23B7316E0F7
:104530003B7BDBB223F00C03DBB243F00803DBB2BE
:10454000DBB23B730BE03B7B43F00C03DBB23B7312
:1045500005E03B7B23F00C03DBB23B7300BF7B68C1
:1045600003F4E073002B2CD07B6803F4E073B3F505
:10457000A07F0FD0B3F5E07F17D0402B1BD13B7B42
:10458000DBB223F03003DBB243F01003DBB2DBB26B
:104590003B7316E03B7BDBB223F03003DBB243F02E
:1045A0002003DBB2DBB23B730BE03B7B43F0300319
:1045B000DBB23B7305E03B7B23F03003DBB23B73A4
:1045C00000BF7B6803F40053002B0AD03B7B43F011
:1045D0004003DBB23B737B7B63F07F03DBB27B7317
:1045E0000EE07B6803F48043002B09D03B7B63F033
:1045F0004003DBB23B737B7B03F07F03DBB27B7357
:104600007B6803F40073002B05D07B7B43F002032F
:10461000DBB27B7309E07B6803F48063002B04D07A
:104620007B7B23F00203DBB27B737B6803F40063C4
:10463000002B05D07B7B43F00103DBB27B7309E0E9
:104640007B6803F48053002B04D07B7B23F00103B1
:10465000DBB27B737B6803F40043002B05D07B7BCC
:1046600043F00403DBB27B7309E07B6803F400438F
:10467000002B04D07B7B23F00403DBB27B733B7BFA
:10468000362000211A46FCF7B7F97B7B3620012142
:104690001A46FCF7B1F9012318461037BD4680BD14
:1046A00080B582B000AF0023FB71644B01221A7009
:1046B0000F200021FCF736F938603B6803F08003D7
:1046C000002B1CD05E4B1B78002B0CD00F20002140
:1046D000FA22FCF77DF95B4B1B78022B0AD1594B70
:1046E00001221A7006E0574B1B78022B02D1554B62
:1046F00000221A700BF0C8F80123FB7194E03B68AC
:1047000003F4C043002B48D04F4B1B685A1C4E4B40
:104710001A603B6803F48063002B36D04B4B1B7848
:10472000002B0DD03B6803F48013002B08D00D2024
:1047300003210122FCF760F9012000F0F9F973E090
:104740000F200021424AFCF731F9404B1B78002B27
:1047500002D13C4B00221A700BF038F93B4B1B780E
:10476000002B09D0374B1B78022B05D00D200321DD
:104770000122FCF741F905E0324B1B78002B01D1F7
:1047800000F0D4F80123FB714EE0012000F0D0F9D5
:1047900000F064F800F0CAF846E03B6803F4081340
:1047A000002B03D0012000F0C3F93DE03B6803F487
:1047B0000043002B10D0254B1B78002B05D00D207B
:1047C00003210122FCF718F92EE0224B1B78002B65
:1047D0002AD100F0ABF827E03A681F4B1340002BBA
:1047E00022D01A4B1B78002B18D03B6803F480139F
:1047F000002B0CD0154B1B78002B04D00D2003216F
:104800000122FCF7F9F8012000F092F90CE0114BBD
:104810001B78002B08D100F089F805E00D4B1B78C0
:10482000002B01D100F082F8044B00221A70FB79B2
:104830009BB218460837BD4680BD00BF2E1A002027
:104840002C1A00202D1A0020F0190020291A00200F
:1048500000EF27242B1A00200090272480B584B075
:1048600000AF04F00FFC0E2000210022FCF79EF8A0
:104870002A4B1B78002B0AD00F200221FCF77EF870
:10488000034603F01003002B01D0012300E00023B6
:10489000FB730D2000214022FCF7AEF8204B0022D4
:1048A0001A70FB7B002B0ED00D2003210122FCF798
:1048B000A3F836200321E022FCF79EF836200321DE
:1048C000F022FCF799F80D2003210122FCF794F85F
:1048D0000F200021FCF726F8B860BB681B0EFB71A7
:1048E000FB7903F08002FB7903F040035B009A42FE
:1048F00004D00D2003210122FCF77EF80F200021B7
:10490000084AFCF753F80E200021074AFCF74EF83E
:1049100004F0A2FB1037BD4680BD00BF291A00205D
:104920002D1A0020FAEF272480B0272480B582B00A
:1049300000AF1A4B1B78002B0BD00F200221FCF785
:104940001DF8034603F01003002B02D0FFF786FF8B
:1049500013E00F200321FCF711F80346FB71FB79EC
:1049600003F08002FB7903F040035B009A4204D01D
:104970000D2003210122FCF73FF8094B01221A7098
:104980000F200021074AFCF711F80D2000214FF4F9
:104990008072FCF71DF80837BD4680BD291A00203B
:1049A0002D1A0020FEFFFF3F80B500AF064B1B789D
:1049B000022B06D0FFF752FF034B02221A7001238D
:1049C00000E00023184680BD2D1A00202DE9B04FCD
:1049D00084B000AFC7E900014449097802297ED1BB
:1049E000D7E9000150EA010C54D000213972D7E90F
:1049F00000014FEA102848EA01684FEA11295FFADE
:104A000088F121F00101C9B27972D7E90001040CE3
:104A100044EA01440D0CE1B2B972D7E90001020E7B
:104A200042EA01220B0ED3B2FB72D7E900239A4669
:104A30004FF0000B5FFA8AF33B7307F108030A207B
:104A400005211A460023FCF771F8294B1B78002B2F
:104A50000FD0284B1B78002B05D00D20002186227B
:104A6000FBF7B6FF15E00D2000218722FBF7B0FF12
:104A700033E0204B1B78002B05D00D2000210622AF
:104A8000FBF7A6FF05E00D2000210722FBF7A0FFA2
:104A900023E022E0164B1B78002B0FD0154B1B7820
:104AA000002B05D00D2000218222FBF791FF14E09E
:104AB0000D2000218322FBF78BFF0EE00D4B1B78AE
:104AC000002B05D00D2000210222FBF781FF04E01E
:104AD0000D2000210322FBF77BFF012300E00023D0
:104AE00018461037BD46BDE8B08F00BF2D1A002014
:104AF0002C1A0020271A002080B500AF04F0D8FA45
:104B0000FFE704F0FBFA0346002BFAD0FFE70F2083
:104B10000021FBF733FF034603F00203002BF6D01E
:104B20000F2000210222FBF767FFFFF797FE80BDF1
:104B300080B582B000AF0346FB710C4B1B78002B95
:104B400001D0FFF78BFE36200321E022FBF754FF54
:104B500036200321F022FBF74FFFFB79002B01D019
:104B6000FFF7E4FE0837BD4680BD00BF2D1A0020C8
:104B70002DE9B04F84B000AF07F1080317200521DD
:104B80001A460023FBF76CFF3B7AD8B24FF00001C6
:104B90007B7ADAB24FF000034FEA032B4BEA126B39
:104BA0004FEA022A40EA0A0041EA0B01BB7ADAB274
:104BB0004FF000034FEA034949EA12494FEA02481D
:104BC00040EA080041EA0901FB7ADAB24FF000033B
:104BD0001D0645EA1225140640EA040241EA0503CF
:104BE000397BC8B24FF000018446C7F804C00020EA
:104BF0003860D7E9000142EA000243EA01031046A7
:104C000019461037BD46BDE8B08F00BF2DE9B04F43
:104C100084B000AF07F10803152005211A460023D0
:104C2000FBF71EFF3B7AD8B24FF000017B7ADAB275
:104C30004FF000034FEA032B4BEA126B4FEA022AB4
:104C400040EA0A0041EA0B01BB7ADAB24FF00003F6
:104C50004FEA034949EA12494FEA024840EA08008C
:104C600041EA0901FB7ADAB24FF000031D0645EA7A
:104C70001225140640EA040241EA0503397BC8B252
:104C80004FF000018446C7F804C000203860D7E91F
:104C9000000142EA000243EA0103104619461037B8
:104CA000BD46BDE8B08F00BF80B584B000AF122014
:104CB0000621FBF74DFE034618460FF055F8024655
:104CC0000B46104619464FF000024FF082430FF09A
:104CD000C1F802460B46C7E9022310200221FBF768
:104CE00037FE03461B099BB218460FF04DF80246EB
:104CF0000B4643EC102B9FED301B0DF0EDFAB0EEA0
:104D0000407AF0EE607A87ED007B314B1B78012B07
:104D100024D1D7E90201D7E900230FF0C5F90246F3
:104D20000B4643EC172BB0EE470AF0EE670A0DF086
:104D300057FA53EC102B104619464FF00002254B42
:104D40000FF088F802460B46104619461CA3D3E91B
:104D500000230EF0CBFE02460B4623E0D7E902010A
:104D6000D7E900230FF0A0F902460B4643EC172BBE
:104D7000B0EE470AF0EE670A0DF032FA53EC102B52
:104D8000104619464FF00002124B0FF063F802462E
:104D90000B46104619460CA3D3E900230EF0A6FEDD
:104DA00002460B4643EC172BB0EE470AF0EE670ABB
:104DB0001037BD4680BD00BF00000000000000406D
:104DC000AE47E17A14EE5C408FC2F5285C6F5E401E
:104DD000221A00200000244080B500AF28201121B5
:104DE0008022FBF709FE282012210A22FBF704FE8D
:104DF000282012210F22FBF7FFFD2A20002100228C
:104E0000FBF7FAFD2A2000210122FBF7F5FD09201E
:104E1000FBF706FE03461A46044B1A700820FBF700
:104E2000FFFD03461A46024B1A7080BDF41900209C
:104E3000F61900200000000080B584B000AF03F038
:104E400067FFF860344B1B68FA689A4203D2324B12
:104E5000FA681A6054E0304B1B68FA68D31AB3F54D
:104E60007A7F4DD32C4BFA681A602A200421FBF775
:104E700085FD0346FB722A2000210022FBF7BCFDC2
:104E80002A2000210122FBF7B7FD244B1B78FA7A78
:104E90009A4235D0FA7A224B1B78D31A18460EF074
:104EA00073FF02460B461046194619A3D3E90023A7
:104EB0000EF0D0FF02460B46104619464FF0000296
:104EC000184B0EF015FE02460B4643EC172BB0EEC6
:104ED000470AF0EE670A0DF037F953EC102B104635
:104EE00019460FF051FA03467B607B6813F1280FD7
:104EF00006DB7B68502B03DC7B68DAB20A4B1A7046
:104F0000094B1B7818461037BD4680BDAFF30080B3
:104F10003D0AD7A3703DF23FEC190020F51900209F
:104F2000F419002000003740E8190020AFF300809A
:104F300080B582B000AF04F00DF9FFE704F0DEF8B1
:104F40000346002BFAD004F00FF904F017F901F032
:104F500079FC0246144B9A4210D000237B6009E092
:104F600001F070FC0246104B9A4200D106E07B68CB
:104F700001337B607B68B3F57A7FF1DB0B4B1B88D9
:104F80002E2041F604011A46FBF722FD084B1B8830
:104F9000182000211A46FBF71BFD04F001F9FFF76A
:104FA0005DFC0837BD4680BD3001CADE321A0020E4
:104FB000341A002080B584B000AF0346FB80002384
:104FC000FB60FB88632B39D0FB881BB21846FBF7CC
:104FD00023F90346FB60FB68002B2FD1FB880F2BC6
:104FE00002D9FB88103BFB80FA88174B53F822301C
:104FF000164819460CF08CFFFA88134B632143F8CE
:105000002210FB881A01124B13441846002110226B
:105010000FF0E4FBFA880F4B002123F81210FA88F6
:105020000D4B002143F82210FA880C4B002143F865
:105030002210FA880A4B002143F8221063231846F5
:105040001037BD4680BD00BF0400002088C40108A1
:10505000483E0020081A002018DF0020F08E0020B3
:1050600040DF002090B58BB002AF0023FB6000232F
:10507000BB6100237B610023BB6000233B61784B55
:1050800000221A60764B4FF4FA725A601023FB80AC
:105090007448FBF73BFC7448FBF738FC7348FBF79C
:1050A00035FC0023FB832CE0FA8B714B53F8223044
:1050B000632B23D0FA8B6E4B53F822309BB21BB27A
:1050C00018466849FBF7F0FBFA8B694B53F822301E
:1050D0009BB21BB218466449FBF7E6FBFA8B644BA4
:1050E00053F822309BB21BB218466049FBF7DCFB39
:1050F000FA8B3B699A4201D9FB8B3B61FB8B0133F5
:10510000FB83FB8B092BCFD93B699BB201339BB24D
:105110009BB21BB2524A009218465249524A534B14
:10512000FBF720FB0346FB60FB68002B40F34A8142
:105130000023FB8342E1FA8B4D4B53F82230632B63
:1051400000F03981FA8B4A4B53F822309BB21BB2E4
:1051500018464649FBF7BEFB0346002B0CD0FA8BE2
:10516000444B53F82230002B06D0FA8B414B53F8B6
:105170002230FA8B10469847FA8B3D4B53F8223079
:105180009BB21BB218463749FBF7A4FB0346002B22
:1051900000F09C80FB8BDA02374B13441846002149
:1051A0004FF400620FF01AFBFA8B344B33F81230D5
:1051B000112B36D0FF2B6BD0062B4DD1FA8B2C4BFD
:1051C00053F822309AB2FB8BD9022B4B0B4412B20C
:1051D000104619464FF400620023FBF787FA034696
:1051E000BB61BB69002B0BD125480CF0D3FEFA8BB9
:1051F0001F4B53F822309BB21846FFF7DBFE48E006
:10520000FB8B1A011F4B1344FA8B11011E4A0A44EF
:10521000146850689168D2681C6058609960DA60C0
:1052200037E0FA8B124B53F822309AB2FB8BD9023B
:10523000114B0B44F98B08011249014412B2009141
:10524000B91D0191104619464FF400620023FBF787
:105250008BF80346BB611CE00C480CF09BFEAAE0F7
:10526000E88E0020443E002070DF002090350020B2
:105270000400002040DF0020E83E0020081A002043
:10528000A8C40108A43D0020483E0020D8C401085D
:1052900000BFBB69002B19DDBB69B3F5006F15D8E2
:1052A000FA8B4C4B53F82230002B0FD0FA8B494B22
:1052B00053F82240FB8BDA02474BD018BB6999B2F6
:1052C000FB8B1A01454B1A44FB8BA047FA8B444BCE
:1052D00053F822309BB21BB218464249FBF7FAFA48
:1052E0000346002B67D0FA8B3F4B53F82230002B3C
:1052F00061D0FA8B3C4B53F82230FA8BD1023B4AF7
:105300001144FA8B08464FF400619847B860BB68B7
:10531000002B41DDFA8B364B33F81230112B19D0AC
:10532000FF2B38D0062B32D1FA8B2D4B53F822307D
:1053300099B2FB8BDA022D4B1A44BB689BB209B2BF
:105340001BB2084611461A460023FBF7DDF8034658
:105350007B6121E0FA8B224B53F8223099B2FB8B10
:10536000DA02224B1A44BB689BB2F88B04011B483B
:105370000444F88809B21BB2009401900846114613
:105380001A460023FAF766FF03467B6103E01948DB
:105390000CF000FE0FE000BF7B69002B09DBFB8BEC
:1053A000DA02124B1344184600214FF400620FF04A
:1053B00015FA0023BB60FB8B0133FB83FB8B092BAE
:1053C0007FF6B9AE0C4B00221A60FB6818462437F2
:1053D000BD4690BD18DF0020E83E0020A43D00201F
:1053E0000400002070DF0020F08E0020188F0020C5
:1053F000081A002004C50108001A002090B5CFB09B
:1054000002AF664A07F58E7307CA83E80700644B4C
:1054100007F586740FCB07C4238002341B0C23705E
:10542000604B07F1FC040FCB07C42370002387F8FF
:105430002F310023C7F828310C2387F8CF302C23D5
:1054400087F8CE30584B01221A700020002100222C
:1054500005F05EF807F1CF0107F1CE0207F1D003A6
:10546000012005F0ABF9C7F82801D7F82831002B47
:105470000ADA3B1D18464D49D7F828210FF02EFABD
:105480003B1D18460CF086FDD7F8E830DBB21A4613
:10549000D7F8EC30DBB2D7F8F010C9B20C46D7F829
:1054A000F410C9B20846391D0094019008464049DD
:1054B0000FF014FA07F58E723B1D104619460FF0D7
:1054C00033FA0346002B03D197F82F31002B02D07B
:1054D000012387F82F31D7F8D430DBB21A46D7F83A
:1054E000D830DBB2D7F8DC10C9B20C46D7F8E010E0
:1054F000C9B20846391D0094019008462D490FF0A5
:10550000EDF907F586723B1D104619460FF00CFAAF
:105510000346002B03D197F82F31002B02D0012333
:1055200087F82F3197F8E4301A4697F8E53097F866
:10553000E6100C4697F8E7100846391D00940190D4
:1055400008461D490FF0CAF907F1FC023B1D104641
:1055500019460FF0E9F90346002B03D197F82F31D4
:10556000002B02D0012387F82F31FF2005F0BAF875
:105570000D4B00221A7097F82F31002B07D00F48DF
:105580000CF008FD04F024FC00F0B2F802E00C4836
:105590000CF000FD07F59A77BD4690BD3CC80108A8
:1055A00048C8010858C80108041A0020A4C7010807
:1055B000C8C70108D8C70108ECC70108FCC7010823
:1055C00020C801082DE9F04FCBB00AAF0023C7F87F
:1055D000FC300C2387F8CF302C2387F8CE3007F12E
:1055E000CF0107F1CE0207F1D003012005F0E6F864
:1055F000C7F8FC00D7F8FC30002B0ADA3B1D184630
:105600003549D7F8FC200FF069F93B1D18460CF01E
:10561000C1FCD7F8D03003F01003002B03D02F4883
:105620000CF0B8FC02E02E480CF0B4FCD7F8D030F7
:1056300003F00203002B03D02A480CF0ABFC02E07D
:1056400029480CF0A7FCD7F8E830DBB21A46D7F8A7
:10565000EC30DBB2D7F8F010C9B28B46D7F8F410B3
:10566000C9B28A46D7F8D410C9B28946D7F8D8103B
:10567000C9B28846D7F8DC10C9B28C46D7F8E0101A
:10568000C9B28E4697F8E4100E4697F8E5100D461D
:1056900097F8E6100C4697F8E7100846391DCDF844
:1056A00000B0CDF804A0CDF80890CDF80C80CDF86E
:1056B00010C0CDF814E006960795089409900846A6
:1056C0000A490FF00BF93B1D18460CF063FC07F577
:1056D0008277BD46BDE8F08FA4C7010868C80108FD
:1056E00070C8010878C8010884C8010890C801087A
:1056F00080B5B8B000AF0023C7F8CC304FF0FF330F
:10570000C7F8C8300023C7F8D0305E4B01221A70AA
:1057100004F00AF95C480CF03DFC00200021002256
:1057200004F0F6FE59480CF035FCFFF74BFF5848E3
:105730000CF030FC4FF40030232101F083FA0146D5
:1057400007F1CC0207F1C803524801F0D5FAC7F8B7
:10575000D000D7F8D030002B05DA4F480CF01AFCF7
:105760004FF0FF3389E042F27473C7F8DC30002356
:10577000C7F8D830D7F8DC30B3F5806F28BF4FF4C6
:105780008063C7F8D43045480CF004FCD7F8C82033
:10579000D7F8D810424B0B441046D7F8D8101A4609
:1057A000D7F8D43001F03EFBC7F8D000D7F8D0309E
:1057B000002B0DDA3B4618463A49D7F8D0200FF0B7
:1057C0008DF83B4618460CF0E5FB4FF0FF3354E0F4
:1057D000D7F8DC20D7F8D430D31AC7F8DC30D7F8A4
:1057E000D820D7F8D4301344C7F8D830D7F8DC30F5
:1057F000B3F5806F28BF4FF48063C7F8D430D7F873
:10580000D430002BC2D128480CF0C4FBD7F8C830E4
:1058100018460021254A4FF4807301F0B3FA03467D
:10582000C7F8D030D7F8D030002B0DDA3B461846F9
:105830001F49D7F8D0200FF051F83B4618460CF01E
:10584000A9FB4FF0FF3318E01A480CF0A3FB1A48ED
:105850000CF0A0FBFF2004F045FF002000210022F7
:1058600004F056FE15480CF095FBFFF7ABFE054B18
:1058700000221A7004F058F800231846E037BD469D
:1058800080BD00BF041A0020CCC80108F0C8010880
:105890000CC9010828C9010840C9010854C90108F8
:1058A000409A010874C9010890C90108B4C10108EF
:1058B000B0C90108CCC90108E0C90108F8C901084C
:1058C00080B582B000AF0220012102F04FFC3B46C0
:1058D000184604F047FD04233B6000237B7101233D
:1058E0003B710023FB710023BB713B460548194601
:1058F00004F0AAFC0348042104F090FD0837BD46DB
:1059000080BD00BF0004024080B500AF4FF40060CE
:10591000012102F085FC4FF40060002102F080FCC0
:1059200080BD00BF80B483B000AF0346FB71054B60
:10593000FA7902F07F021A600C37BD465DF8047BED
:10594000704700BF002C004080B400AF034B002222
:105950009A60BD465DF8047B704700BF002C004094
:1059600080B500AF03F0E0F9FFF7E2FA124B4FF415
:1059700000721A60114B00221A60114B00221A604B
:10598000104B02221A70104B00221A700F4B0A2281
:105990001A700F4B04221A700E4B01221A700E4B14
:1059A00000221A700D4B00221A700D4B00221A7043
:1059B0000C4B00221A7080BD7CDF002078DF0020B5
:1059C00074DF0020221A0020231A0020241A00204D
:1059D000251A0020261A0020201A0020291A00204B
:1059E000281A00202B1A002080B483B000AF034691
:1059F000FB71FB79002B01D0022300E001231A4A3E
:105A00001370FB79002B2AD0184B4FF400721A60E8
:105A1000174B00221A60174B00221A60164B012206
:105A20001A70164B00221A70154B0A221A70154B69
:105A300004221A70144B01221A70144B00221A709F
:105A4000134B00221A70134B00221A70124B0022C3
:105A50001A70124B00221A70114B40221A700C3728
:105A6000BD465DF8047B70472F1A00207CDF0020C4
:105A700078DF002074DF0020221A0020231A002083
:105A8000241A0020251A0020261A00202A1A002095
:105A9000201A0020291A0020281A00202B1A002082
:105AA00040000020F0B591B000AF002387F83F30F0
:105AB0000023BB8703F062FB00F0C4FEB863BA6B3F
:105AC000C74B9A4202D0FFF717F845E0C54B1B7849
:105AD000022B41D140F6FB30FEF7DCFC24200021F4
